{
  "contractName": "EcoReward",
  "abi": [
    {
      "constant": true,
      "inputs": [
        {
          "name": "",
          "type": "address"
        }
      ],
      "name": "rewards",
      "outputs": [
        {
          "name": "",
          "type": "uint256"
        }
      ],
      "payable": false,
      "stateMutability": "view",
      "type": "function",
      "signature": "0x0700037d"
    },
    {
      "constant": true,
      "inputs": [
        {
          "name": "",
          "type": "uint256"
        }
      ],
      "name": "activities",
      "outputs": [
        {
          "name": "name",
          "type": "string"
        },
        {
          "name": "rewardRate",
          "type": "uint256"
        }
      ],
      "payable": false,
      "stateMutability": "view",
      "type": "function",
      "signature": "0x0d1657e8"
    },
    {
      "inputs": [],
      "payable": true,
      "stateMutability": "payable",
      "type": "constructor",
      "signature": "constructor"
    },
    {
      "anonymous": false,
      "inputs": [
        {
          "indexed": true,
          "name": "user",
          "type": "address"
        },
        {
          "indexed": false,
          "name": "amount",
          "type": "uint256"
        }
      ],
      "name": "RewardIssued",
      "type": "event",
      "signature": "0xf9b6ec770c96c3a6f9225bf3a8463a8ad03e884448af07b4ecd4d19d628946ee"
    },
    {
      "anonymous": false,
      "inputs": [
        {
          "indexed": true,
          "name": "user",
          "type": "address"
        },
        {
          "indexed": false,
          "name": "amount",
          "type": "uint256"
        }
      ],
      "name": "RewardClaimed",
      "type": "event",
      "signature": "0x106f923f993c2149d49b4255ff723acafa1f2d94393f561d3eda32ae348f7241"
    },
    {
      "anonymous": false,
      "inputs": [
        {
          "indexed": false,
          "name": "activityName",
          "type": "string"
        },
        {
          "indexed": false,
          "name": "rewardRate",
          "type": "uint256"
        }
      ],
      "name": "ActivityAdded",
      "type": "event",
      "signature": "0x0b0712ec456af93f6b0404b0e069493b19905c3124aa2ef31ccaa41199a75c15"
    },
    {
      "constant": false,
      "inputs": [
        {
          "name": "activityName",
          "type": "string"
        },
        {
          "name": "rewardRate",
          "type": "uint256"
        },
        {
          "name": "user",
          "type": "address"
        }
      ],
      "name": "addAndLogActivity",
      "outputs": [],
      "payable": false,
      "stateMutability": "nonpayable",
      "type": "function",
      "signature": "0xaf800154"
    },
    {
      "constant": false,
      "inputs": [],
      "name": "claimReward",
      "outputs": [],
      "payable": true,
      "stateMutability": "payable",
      "type": "function",
      "signature": "0xb88a802f"
    },
    {
      "constant": true,
      "inputs": [],
      "name": "getActivities",
      "outputs": [
        {
          "components": [
            {
              "name": "name",
              "type": "string"
            },
            {
              "name": "rewardRate",
              "type": "uint256"
            }
          ],
          "name": "",
          "type": "tuple[]"
        }
      ],
      "payable": false,
      "stateMutability": "view",
      "type": "function",
      "signature": "0x71aa17c6"
    },
    {
      "constant": false,
      "inputs": [],
      "name": "depositFunds",
      "outputs": [],
      "payable": true,
      "stateMutability": "payable",
      "type": "function",
      "signature": "0xe2c41dbc"
    }
  ],
  "bytecode": "0x6080604052610973806100136000396000f3fe6080604052600436106100775763ffffffff7c01000000000000000000000000000000000000000000000000000000006000350416630700037d811461007c5780630d1657e8146100b257806371aa17c6146100e0578063af80015414610102578063b88a802f14610124578063e2c41dbc1461012c575b600080fd5b34801561008857600080fd5b5061009c610097366004610629565b610134565b6040516100a99190610868565b60405180910390f35b3480156100be57600080fd5b506100d26100cd3660046106b3565b610146565b6040516100a9929190610822565b3480156100ec57600080fd5b506100f56101fa565b6040516100a99190610811565b34801561010e57600080fd5b5061012261011d36600461064f565b6102ee565b005b610122610402565b61012261051c565b60006020819052908152604090205481565b600180548290811061015457fe5b60009182526020918290206002918202018054604080516001831615610100026000190190921693909304601f8101859004850282018501909352828152909350918391908301828280156101ea5780601f106101bf576101008083540402835291602001916101ea565b820191906000526020600020905b8154815290600101906020018083116101cd57829003601f168201915b5050505050908060010154905082565b60606001805480602002602001604051908101604052809291908181526020016000905b828210156102e45760008481526020908190206040805160028681029093018054600181161561010002600019011693909304601f8101859004909402810160609081018352918101848152909384928491908401828280156102c25780601f10610297576101008083540402835291602001916102c2565b820191906000526020600020905b8154815290600101906020018083116102a557829003601f168201915b505050505081526020016001820154815250508152602001906001019061021e565b5050505090505b90565b604080518082019091528381526020808201849052600180548082018083556000929092528351805192949360029092027fb10e2d527612073b26eecdfd717e6a320cf44b4afac2b0732d9fcbe2b7fa0cf6019261034f928492019061051e565b50602082015181600101555050507f0b0712ec456af93f6b0404b0e069493b19905c3124aa2ef31ccaa41199a75c15838360405161038e929190610822565b60405180910390a173ffffffffffffffffffffffffffffffffffffffff811660008181526020819052604090819020805485019055518391907ff9b6ec770c96c3a6f9225bf3a8463a8ad03e884448af07b4ecd4d19d628946ee906103f4908490610868565b60405180910390a250505050565b33600090815260208190526040812054908111610454576040517f08c379a000000000000000000000000000000000000000000000000000000000815260040161044b90610858565b60405180910390fd5b303181111561048f576040517f08c379a000000000000000000000000000000000000000000000000000000000815260040161044b90610842565b336000818152602081905260408082208290555183156108fc0291849190818181858888f193505050501580156104ca573d6000803e3d6000fd5b503373ffffffffffffffffffffffffffffffffffffffff167f106f923f993c2149d49b4255ff723acafa1f2d94393f561d3eda32ae348f7241826040516105119190610868565b60405180910390a250565b565b828054600181600116156101000203166002900490600052602060002090601f016020900481019282601f1061055f57805160ff191683800117855561058c565b8280016001018555821561058c579182015b8281111561058c578251825591602001919060010190610571565b5061059892915061059c565b5090565b6102eb91905b8082111561059857600081556001016105a2565b60006105c282356108e8565b9392505050565b6000601f820183136105da57600080fd5b81356105ed6105e88261089d565b610876565b9150808252602083016020830185838301111561060957600080fd5b6106148382846108f3565b50505092915050565b60006105c282356102eb565b60006020828403121561063b57600080fd5b600061064784846105b6565b949350505050565b60008060006060848603121561066457600080fd5b833567ffffffffffffffff81111561067b57600080fd5b610687868287016105c9565b93505060206106988682870161061d565b92505060406106a9868287016105b6565b9150509250925092565b6000602082840312156106c557600080fd5b6000610647848461061d565b60006106dc826108cb565b808452602084019350836020820285016106f5856108c5565b60005b8481101561072c5783830388526107108383516107cd565b925061071b826108c5565b6020989098019791506001016106f8565b50909695505050505050565b6000610743826108cb565b8084526107578160208601602086016108ff565b6107608161092f565b9093016020019392505050565b601c81527f4e6f7420656e6f7567682066756e647320696e20636f6e747261637400000000602082015260400190565b601381527f4e6f2072657761726420617661696c61626c6500000000000000000000000000602082015260400190565b80516040808452600091908401906107e58282610738565b91505060208301516107fa6020860182610802565b509392505050565b61080b816102eb565b82525050565b602080825281016105c281846106d1565b604080825281016108338185610738565b90506105c26020830184610802565b602080825281016108528161076d565b92915050565b602080825281016108528161079d565b602081016108528284610802565b60405181810167ffffffffffffffff8111828210171561089557600080fd5b604052919050565b600067ffffffffffffffff8211156108b457600080fd5b506020601f91909101601f19160190565b60200190565b5190565b73ffffffffffffffffffffffffffffffffffffffff1690565b6000610852826108cf565b82818337506000910152565b60005b8381101561091a578181015183820152602001610902565b83811115610929576000848401525b50505050565b601f01601f19169056fea265627a7a7230582014e0c4a5b803d6ac71214430296a1b6879a1e7c7efbb062ee4b035039c68b6936c6578706572696d656e74616cf50037",
  "source": "pragma solidity >=0.4.22 <0.9.0;\npragma experimental ABIEncoderV2;\n\ncontract EcoReward {\n    mapping(address => uint) public rewards;\n\n    event RewardIssued(address indexed user, uint amount);\n    event RewardClaimed(address indexed user, uint amount);\n    event ActivityAdded(string activityName, uint rewardRate);\n\n    struct Activity {\n        string name;\n        uint rewardRate; // Rata de recompensă per unitate\n    }\n\n    Activity[] public activities; // Lista activităților disponibile\n\n    constructor() public payable {\n        // Inițializăm activități de bază\n        // addActivity(\"Recycling\", 1);\n        // addActivity(\"Planting Trees\", 2);\n        // addActivity(\"Using Public Transport\", 3);\n    }\n\n\tfunction addAndLogActivity(\n\t\t\tstring memory activityName,\n\t\t\tuint rewardRate,\n\t\t\taddress user\n\t\t) public {\n\t\t\t// Adaugă o nouă activitate\n\t\t\tactivities.push(Activity(activityName, rewardRate));\n\t\t\temit ActivityAdded(activityName, rewardRate);\n\n\t\t\t// Calculează recompensa și actualizează balanța utilizatorului\n\t\t\tuint rewardAmount = rewardRate;\n\t\t\trewards[user] += rewardAmount;\n\t\t\temit RewardIssued(user, rewardAmount);\n\t\t}\n\n\n\tfunction claimReward() public payable {\n\t\tuint rewardAmount = rewards[msg.sender];\n\n\t\trequire(rewardAmount > 0, \"No reward available\");\n\t\trequire(address(this).balance >= rewardAmount, \"Not enough funds in contract\");\n\n\t\trewards[msg.sender] = 0;\n\t\t\n        // Transferă folosind metoda `transfer`\n        msg.sender.transfer(rewardAmount);\n\n\t\temit RewardClaimed(msg.sender, rewardAmount);\n\t}\n\n\n    function getActivities() public view returns (Activity[] memory) {\n        return activities;\n    }\n\n    // Funcție pentru a permite alimentarea contractului\n    function depositFunds() public payable {}\n}\n",
  "sourcePath": "C:/Users/Iuliana P/blockchain-app/contracts/EcoReward.sol",
  "compiler": {
    "name": "solc",
    "version": "0.5.0+commit.1d4f565a.Emscripten.clang"
  },
  "schemaVersion": "3.0.1",
  "updatedAt": "2025-01-13T19:02:35.711Z",
  "devdoc": {
    "methods": {}
  },
  "userdoc": {
    "methods": {}
  }
}