{
  "contractName": "EcoReward",
  "abi": [
    {
      "constant": true,
      "inputs": [
        {
          "name": "",
          "type": "address"
        }
      ],
      "name": "rewards",
      "outputs": [
        {
          "name": "",
          "type": "uint256"
        }
      ],
      "payable": false,
      "stateMutability": "view",
      "type": "function",
      "signature": "0x0700037d"
    },
    {
      "constant": true,
      "inputs": [
        {
          "name": "",
          "type": "uint256"
        }
      ],
      "name": "activities",
      "outputs": [
        {
          "name": "name",
          "type": "string"
        },
        {
          "name": "rewardRate",
          "type": "uint256"
        }
      ],
      "payable": false,
      "stateMutability": "view",
      "type": "function",
      "signature": "0x0d1657e8"
    },
    {
      "constant": true,
      "inputs": [],
      "name": "admin",
      "outputs": [
        {
          "name": "",
          "type": "address"
        }
      ],
      "payable": false,
      "stateMutability": "view",
      "type": "function",
      "signature": "0xf851a440"
    },
    {
      "inputs": [],
      "payable": true,
      "stateMutability": "payable",
      "type": "constructor",
      "signature": "constructor"
    },
    {
      "anonymous": false,
      "inputs": [
        {
          "indexed": true,
          "name": "user",
          "type": "address"
        },
        {
          "indexed": false,
          "name": "amount",
          "type": "uint256"
        }
      ],
      "name": "RewardIssued",
      "type": "event",
      "signature": "0xf9b6ec770c96c3a6f9225bf3a8463a8ad03e884448af07b4ecd4d19d628946ee"
    },
    {
      "anonymous": false,
      "inputs": [
        {
          "indexed": true,
          "name": "user",
          "type": "address"
        },
        {
          "indexed": false,
          "name": "amount",
          "type": "uint256"
        }
      ],
      "name": "RewardClaimed",
      "type": "event",
      "signature": "0x106f923f993c2149d49b4255ff723acafa1f2d94393f561d3eda32ae348f7241"
    },
    {
      "anonymous": false,
      "inputs": [
        {
          "indexed": false,
          "name": "activityName",
          "type": "string"
        },
        {
          "indexed": false,
          "name": "rewardRate",
          "type": "uint256"
        }
      ],
      "name": "ActivityAdded",
      "type": "event",
      "signature": "0x0b0712ec456af93f6b0404b0e069493b19905c3124aa2ef31ccaa41199a75c15"
    },
    {
      "anonymous": false,
      "inputs": [
        {
          "indexed": true,
          "name": "user",
          "type": "address"
        },
        {
          "indexed": false,
          "name": "amount",
          "type": "uint256"
        }
      ],
      "name": "FundsDeposited",
      "type": "event",
      "signature": "0x543ba50a5eec5e6178218e364b1d0f396157b3c8fa278522c2cb7fd99407d474"
    },
    {
      "anonymous": false,
      "inputs": [
        {
          "indexed": false,
          "name": "newBalance",
          "type": "uint256"
        }
      ],
      "name": "ContractFundsUpdated",
      "type": "event",
      "signature": "0x2c21af110e159cc793c29995a4f694417b6de1d123b5b0a8e8cbee6f167572ed"
    },
    {
      "constant": false,
      "inputs": [
        {
          "name": "activityName",
          "type": "string"
        },
        {
          "name": "rewardRate",
          "type": "uint256"
        }
      ],
      "name": "addActivity",
      "outputs": [],
      "payable": false,
      "stateMutability": "nonpayable",
      "type": "function",
      "signature": "0x533db93e"
    },
    {
      "constant": false,
      "inputs": [
        {
          "name": "activityIndex",
          "type": "uint256"
        },
        {
          "name": "detail",
          "type": "uint256"
        },
        {
          "name": "user",
          "type": "address"
        }
      ],
      "name": "logEcoActivity",
      "outputs": [],
      "payable": false,
      "stateMutability": "nonpayable",
      "type": "function",
      "signature": "0x1f530aa1"
    },
    {
      "constant": false,
      "inputs": [],
      "name": "claimReward",
      "outputs": [],
      "payable": true,
      "stateMutability": "payable",
      "type": "function",
      "signature": "0xb88a802f"
    },
    {
      "constant": false,
      "inputs": [],
      "name": "depositFunds",
      "outputs": [],
      "payable": true,
      "stateMutability": "payable",
      "type": "function",
      "signature": "0xe2c41dbc"
    },
    {
      "constant": false,
      "inputs": [],
      "name": "depositUserFunds",
      "outputs": [],
      "payable": true,
      "stateMutability": "payable",
      "type": "function",
      "signature": "0x92fde0c9"
    },
    {
      "constant": true,
      "inputs": [],
      "name": "getActivities",
      "outputs": [
        {
          "components": [
            {
              "name": "name",
              "type": "string"
            },
            {
              "name": "rewardRate",
              "type": "uint256"
            }
          ],
          "name": "",
          "type": "tuple[]"
        }
      ],
      "payable": false,
      "stateMutability": "view",
      "type": "function",
      "signature": "0x71aa17c6"
    },
    {
      "constant": true,
      "inputs": [],
      "name": "getContractBalance",
      "outputs": [
        {
          "name": "",
          "type": "uint256"
        }
      ],
      "payable": false,
      "stateMutability": "view",
      "type": "function",
      "signature": "0x6f9fb98a"
    }
  ],
  "bytecode": "0x60018054600160a060020a0319163317815560c0604052600960809081527f52656379636c696e67000000000000000000000000000000000000000000000060a0526200005591640100000000620000ef810204565b60408051808201909152600e81527f506c616e74696e6720547265657300000000000000000000000000000000000060208201526200009f906002640100000000620000ef810204565b60408051808201909152601681527f5573696e67205075626c6963205472616e73706f7274000000000000000000006020820152620000e9906003640100000000620000ef810204565b62000394565b600154600160a060020a031633146200013f576040517f08c379a000000000000000000000000000000000000000000000000000000000815260040162000136906200033b565b60405180910390fd5b6040805180820190915282815260208082018390526002805460018101808355600083905284518051919594929093027f405787fa12a823e0f2b7631cc41b3ba8828b3321ca811111fa75cd3aa3bb5ace0192620001a2928492910190620001ef565b50602082015181600101555050507f0b0712ec456af93f6b0404b0e069493b19905c3124aa2ef31ccaa41199a75c158282604051620001e392919062000310565b60405180910390a15050565b828054600181600116156101000203166002900490600052602060002090601f016020900481019282601f106200023257805160ff191683800117855562000262565b8280016001018555821562000262579182015b828111156200026257825182559160200191906001019062000245565b506200027092915062000274565b5090565b6200029191905b808211156200027057600081556001016200027b565b90565b6000620002a18262000353565b808452620002b781602086016020860162000357565b620002c2816200038a565b9093016020019392505050565b601d81527f4f6e6c792061646d696e2063616e206164642061637469766974696573000000602082015260400190565b6200030a8162000291565b82525050565b6040808252810162000323818562000294565b9050620003346020830184620002ff565b9392505050565b602080825281016200034d81620002cf565b92915050565b5190565b60005b83811015620003745781810151838201526020016200035a565b8381111562000384576000848401525b50505050565b601f01601f191690565b610bcd80620003a46000396000f3fe6080604052600436106100a35763ffffffff7c01000000000000000000000000000000000000000000000000000000006000350416630700037d81146100a85780630d1657e8146100de5780631f530aa11461010c578063533db93e1461012e5780636f9fb98a1461014e57806371aa17c61461016357806392fde0c914610185578063b88a802f1461018d578063e2c41dbc14610195578063f851a4401461019d575b600080fd5b3480156100b457600080fd5b506100c86100c33660046107c5565b6101bf565b6040516100d59190610ad5565b60405180910390f35b3480156100ea57600080fd5b506100fe6100f936600461083c565b6101d1565b6040516100d5929190610a75565b34801561011857600080fd5b5061012c61012736600461085a565b610285565b005b34801561013a57600080fd5b5061012c6101493660046107eb565b610352565b34801561015a57600080fd5b506100c861042b565b34801561016f57600080fd5b50610178610431565b6040516100d59190610a64565b61012c610524565b61012c610567565b61012c610643565b3480156101a957600080fd5b506101b26106ab565b6040516100d59190610a50565b60006020819052908152604090205481565b60028054829081106101df57fe5b60009182526020918290206002918202018054604080516001831615610100026000190190921693909304601f8101859004850282018501909352828152909350918391908301828280156102755780601f1061024a57610100808354040283529160200191610275565b820191906000526020600020905b81548152906001019060200180831161025857829003601f168201915b5050505050908060010154905082565b60025483106102b25760405160e560020a62461bcd0281526004016102a990610ac5565b60405180910390fd5b6000826002858154811015156102c457fe5b9060005260206000209060020201600101540290508060008084600160a060020a0316600160a060020a031681526020019081526020016000206000828254019250508190555081600160a060020a03167ff9b6ec770c96c3a6f9225bf3a8463a8ad03e884448af07b4ecd4d19d628946ee826040516103449190610ad5565b60405180910390a250505050565b600154600160a060020a0316331461037f5760405160e560020a62461bcd0281526004016102a990610aa5565b6040805180820190915282815260208082018390526002805460018101808355600083905284518051919594929093027f405787fa12a823e0f2b7631cc41b3ba8828b3321ca811111fa75cd3aa3bb5ace01926103e09284929101906106ba565b50602082015181600101555050507f0b0712ec456af93f6b0404b0e069493b19905c3124aa2ef31ccaa41199a75c15828260405161041f929190610a75565b60405180910390a15050565b30315b90565b60606002805480602002602001604051908101604052809291908181526020016000905b8282101561051b5760008481526020908190206040805160028681029093018054600181161561010002600019011693909304601f8101859004909402810160609081018352918101848152909384928491908401828280156104f95780601f106104ce576101008083540402835291602001916104f9565b820191906000526020600020905b8154815290600101906020018083116104dc57829003601f168201915b5050505050815260200160018201548152505081526020019060010190610455565b50505050905090565b33600160a060020a03167f543ba50a5eec5e6178218e364b1d0f396157b3c8fa278522c2cb7fd99407d4743460405161055d9190610ad5565b60405180910390a2565b336000908152602081905260408120549081116105995760405160e560020a62461bcd0281526004016102a990610ab5565b30318111156105bd5760405160e560020a62461bcd0281526004016102a990610a95565b33600081815260208190526040808220829055518291829185156108fc0291869190818181858888f193505050501580156105fc573d6000803e3d6000fd5b5033600160a060020a03167f106f923f993c2149d49b4255ff723acafa1f2d94393f561d3eda32ae348f7241846040516106369190610ad5565b60405180910390a2505050565b600154600160a060020a031633146106705760405160e560020a62461bcd0281526004016102a990610aa5565b6040517f2c21af110e159cc793c29995a4f694417b6de1d123b5b0a8e8cbee6f167572ed906106a190303190610ad5565b60405180910390a1565b600154600160a060020a031681565b828054600181600116156101000203166002900490600052602060002090601f016020900481019282601f106106fb57805160ff1916838001178555610728565b82800160010185558215610728579182015b8281111561072857825182559160200191906001019061070d565b50610734929150610738565b5090565b61042e91905b80821115610734576000815560010161073e565b600061075e8235610b3c565b9392505050565b6000601f8201831361077657600080fd5b813561078961078482610b0a565b610ae3565b915080825260208301602083018583830111156107a557600080fd5b6107b0838284610b4d565b50505092915050565b600061075e823561042e565b6000602082840312156107d757600080fd5b60006107e38484610752565b949350505050565b600080604083850312156107fe57600080fd5b823567ffffffffffffffff81111561081557600080fd5b61082185828601610765565b9250506020610832858286016107b9565b9150509250929050565b60006020828403121561084e57600080fd5b60006107e384846107b9565b60008060006060848603121561086f57600080fd5b600061087b86866107b9565b935050602061088c868287016107b9565b925050604061089d86828701610752565b9150509250925092565b6108b081610b3c565b82525050565b60006108c182610b38565b808452602084019350836020820285016108da85610b32565b60005b848110156109115783830388526108f5838351610a12565b925061090082610b32565b6020989098019791506001016108dd565b50909695505050505050565b600061092882610b38565b80845261093c816020860160208601610b59565b61094581610b89565b9093016020019392505050565b601c81527f4e6f7420656e6f7567682066756e647320696e20636f6e747261637400000000602082015260400190565b601d81527f4f6e6c792061646d696e2063616e206164642061637469766974696573000000602082015260400190565b601381527f4e6f2072657761726420617661696c61626c6500000000000000000000000000602082015260400190565b601681527f496e76616c696420616374697669747920696e64657800000000000000000000602082015260400190565b8051604080845260009190840190610a2a828261091d565b9150506020830151610a3f6020860182610a47565b509392505050565b6108b08161042e565b60208101610a5e82846108a7565b92915050565b6020808252810161075e81846108b6565b60408082528101610a86818561091d565b905061075e6020830184610a47565b60208082528101610a5e81610952565b60208082528101610a5e81610982565b60208082528101610a5e816109b2565b60208082528101610a5e816109e2565b60208101610a5e8284610a47565b60405181810167ffffffffffffffff81118282101715610b0257600080fd5b604052919050565b600067ffffffffffffffff821115610b2157600080fd5b506020601f91909101601f19160190565b60200190565b5190565b6000600160a060020a038216610a5e565b82818337506000910152565b60005b83811015610b74578181015183820152602001610b5c565b83811115610b83576000848401525b50505050565b601f01601f19169056fea265627a7a7230582048e1797b63ef992816180b5e1bcf1d3c0c4ec11eb32d08b878af1ad36fee591b6c6578706572696d656e74616cf50037",
  "source": "pragma solidity >=0.4.22 <0.9.0;\npragma experimental ABIEncoderV2;\n\ncontract EcoReward {\n    mapping(address => uint) public rewards;\n    address public admin; // Adminul care poate adăuga activități\n\n    event RewardIssued(address indexed user, uint amount);\n    event RewardClaimed(address indexed user, uint amount);\n    event ActivityAdded(string activityName, uint rewardRate);\n    event FundsDeposited(address indexed user, uint amount);\n    event ContractFundsUpdated(uint newBalance);\n\n    struct Activity {\n        string name;\n        uint rewardRate; // Rata de recompensă per unitate\n    }\n\n    Activity[] public activities; // Lista activităților disponibile\n\n    constructor() public payable {\n        admin = msg.sender; // Setăm adminul ca fiind contul care a implementat contractul\n        // Inițializăm activități de bază\n        addActivity(\"Recycling\", 1);\n        addActivity(\"Planting Trees\", 2);\n        addActivity(\"Using Public Transport\", 3);\n    }\n\n    modifier onlyAdmin() {\n        require(msg.sender == admin, \"Only admin can add activities\");\n        _;\n    }\n\n    // Permite adminului să adauge activități\n    function addActivity(string memory activityName, uint rewardRate) public onlyAdmin {\n        activities.push(Activity(activityName, rewardRate));\n        emit ActivityAdded(activityName, rewardRate);\n    }\n\n    // Permite utilizatorului să logheze activitățile și să primească recompense\n    function logEcoActivity(uint activityIndex, uint detail, address user) public {\n        require(activityIndex < activities.length, \"Invalid activity index\");\n        uint rewardAmount = activities[activityIndex].rewardRate * detail;\n        rewards[user] += rewardAmount;\n        emit RewardIssued(user, rewardAmount);\n    }\n\n    // Permite utilizatorilor să revendice recompensele lor\n    function claimReward() public payable {\n        uint rewardAmount = rewards[msg.sender];\n        require(rewardAmount > 0, \"No reward available\");\n        require(address(this).balance >= rewardAmount, \"Not enough funds in contract\");\n\n        rewards[msg.sender] = 0;\n\n        address recipient = msg.sender;\n        address payable recipientPayable = address(uint160(recipient));\n        recipientPayable.transfer(rewardAmount);\n\n        emit RewardClaimed(msg.sender, rewardAmount);\n    }\n\n    // Permite adminului să adauge fonduri contractului\n    function depositFunds() public payable onlyAdmin {\n        emit ContractFundsUpdated(address(this).balance);\n    }\n\n    // Permite utilizatorilor să adauge fonduri pentru a revendica recompense\n    function depositUserFunds() public payable {\n        emit FundsDeposited(msg.sender, msg.value);\n    }\n\n    // Funcție pentru a obține lista de activități\n    function getActivities() public view returns (Activity[] memory) {\n        return activities;\n    }\n\n    // Funcție pentru a verifica balanta contractului\n    function getContractBalance() public view returns (uint) {\n        return address(this).balance;\n    }\n}\n",
  "sourcePath": "C:/Users/Iuliana P/blockchain-app/contracts/EcoReward.sol",
  "compiler": {
    "name": "solc",
    "version": "0.5.0+commit.1d4f565a.Emscripten.clang"
  },
  "schemaVersion": "3.0.1",
  "updatedAt": "2024-12-29T15:12:16.020Z",
  "devdoc": {
    "methods": {}
  },
  "userdoc": {
    "methods": {}
  }
}