{
  "contractName": "EcoReward",
  "abi": [
    {
      "constant": true,
      "inputs": [
        {
          "name": "",
          "type": "address"
        }
      ],
      "name": "rewards",
      "outputs": [
        {
          "name": "",
          "type": "uint256"
        }
      ],
      "payable": false,
      "stateMutability": "view",
      "type": "function",
      "signature": "0x0700037d"
    },
    {
      "constant": true,
      "inputs": [
        {
          "name": "",
          "type": "uint256"
        }
      ],
      "name": "activities",
      "outputs": [
        {
          "name": "name",
          "type": "string"
        },
        {
          "name": "rewardRate",
          "type": "uint256"
        }
      ],
      "payable": false,
      "stateMutability": "view",
      "type": "function",
      "signature": "0x0d1657e8"
    },
    {
      "inputs": [],
      "payable": true,
      "stateMutability": "payable",
      "type": "constructor",
      "signature": "constructor"
    },
    {
      "anonymous": false,
      "inputs": [
        {
          "indexed": true,
          "name": "user",
          "type": "address"
        },
        {
          "indexed": false,
          "name": "amount",
          "type": "uint256"
        }
      ],
      "name": "RewardIssued",
      "type": "event",
      "signature": "0xf9b6ec770c96c3a6f9225bf3a8463a8ad03e884448af07b4ecd4d19d628946ee"
    },
    {
      "anonymous": false,
      "inputs": [
        {
          "indexed": true,
          "name": "user",
          "type": "address"
        },
        {
          "indexed": false,
          "name": "amount",
          "type": "uint256"
        }
      ],
      "name": "RewardClaimed",
      "type": "event",
      "signature": "0x106f923f993c2149d49b4255ff723acafa1f2d94393f561d3eda32ae348f7241"
    },
    {
      "anonymous": false,
      "inputs": [
        {
          "indexed": false,
          "name": "activityName",
          "type": "string"
        },
        {
          "indexed": false,
          "name": "rewardRate",
          "type": "uint256"
        }
      ],
      "name": "ActivityAdded",
      "type": "event",
      "signature": "0x0b0712ec456af93f6b0404b0e069493b19905c3124aa2ef31ccaa41199a75c15"
    },
    {
      "constant": false,
      "inputs": [
        {
          "name": "activityName",
          "type": "string"
        },
        {
          "name": "rewardRate",
          "type": "uint256"
        }
      ],
      "name": "addActivity",
      "outputs": [],
      "payable": false,
      "stateMutability": "nonpayable",
      "type": "function",
      "signature": "0x533db93e"
    },
    {
      "constant": false,
      "inputs": [
        {
          "name": "activityIndex",
          "type": "uint256"
        },
        {
          "name": "detail",
          "type": "uint256"
        },
        {
          "name": "user",
          "type": "address"
        }
      ],
      "name": "logEcoActivity",
      "outputs": [],
      "payable": false,
      "stateMutability": "nonpayable",
      "type": "function",
      "signature": "0x1f530aa1"
    },
    {
      "constant": false,
      "inputs": [],
      "name": "claimReward",
      "outputs": [],
      "payable": true,
      "stateMutability": "payable",
      "type": "function",
      "signature": "0xb88a802f"
    },
    {
      "constant": true,
      "inputs": [],
      "name": "getActivities",
      "outputs": [
        {
          "components": [
            {
              "name": "name",
              "type": "string"
            },
            {
              "name": "rewardRate",
              "type": "uint256"
            }
          ],
          "name": "",
          "type": "tuple[]"
        }
      ],
      "payable": false,
      "stateMutability": "view",
      "type": "function",
      "signature": "0x71aa17c6"
    },
    {
      "constant": false,
      "inputs": [],
      "name": "depositFunds",
      "outputs": [],
      "payable": true,
      "stateMutability": "payable",
      "type": "function",
      "signature": "0xe2c41dbc"
    }
  ],
  "bytecode": "0x60c0604052600960809081527f52656379636c696e67000000000000000000000000000000000000000000000060a05262000045906001640100000000620000df810204565b60408051808201909152600e81527f506c616e74696e6720547265657300000000000000000000000000000000000060208201526200008f906002640100000000620000df810204565b60408051808201909152601681527f5573696e67205075626c6963205472616e73706f7274000000000000000000006020820152620000d9906003640100000000620000df810204565b620002ec565b604080518082019091528281526020808201839052600180548082018083556000929092528351805192949360029092027fb10e2d527612073b26eecdfd717e6a320cf44b4afac2b0732d9fcbe2b7fa0cf601926200014292849201906200018f565b50602082015181600101555050507f0b0712ec456af93f6b0404b0e069493b19905c3124aa2ef31ccaa41199a75c1582826040516200018392919062000280565b60405180910390a15050565b828054600181600116156101000203166002900490600052602060002090601f016020900481019282601f10620001d257805160ff191683800117855562000202565b8280016001018555821562000202579182015b8281111562000202578251825591602001919060010190620001e5565b506200021092915062000214565b5090565b6200023191905b808211156200021057600081556001016200021b565b90565b60006200024182620002ab565b80845262000257816020860160208601620002af565b6200026281620002e2565b9093016020019392505050565b6200027a8162000231565b82525050565b6040808252810162000293818562000234565b9050620002a460208301846200026f565b9392505050565b5190565b60005b83811015620002cc578181015183820152602001620002b2565b83811115620002dc576000848401525b50505050565b601f01601f191690565b610ab280620002fc6000396000f3fe6080604052600436106100825763ffffffff7c01000000000000000000000000000000000000000000000000000000006000350416630700037d81146100875780630d1657e8146100bd5780631f530aa1146100eb578063533db93e1461010d57806371aa17c61461012d578063b88a802f1461014f578063e2c41dbc14610157575b600080fd5b34801561009357600080fd5b506100a76100a23660046106ee565b61015f565b6040516100b491906109a7565b60405180910390f35b3480156100c957600080fd5b506100dd6100d8366004610765565b610171565b6040516100b4929190610951565b3480156100f757600080fd5b5061010b610106366004610783565b610225565b005b34801561011957600080fd5b5061010b610128366004610714565b610330565b34801561013957600080fd5b506101426103dc565b6040516100b49190610940565b61010b6104d0565b61010b6105e1565b60006020819052908152604090205481565b600180548290811061017f57fe5b60009182526020918290206002918202018054604080516001831615610100026000190190921693909304601f8101859004850282018501909352828152909350918391908301828280156102155780601f106101ea57610100808354040283529160200191610215565b820191906000526020600020905b8154815290600101906020018083116101f857829003601f168201915b5050505050908060010154905082565b6001548310610269576040517f08c379a000000000000000000000000000000000000000000000000000000000815260040161026090610997565b60405180910390fd5b60008260018581548110151561027b57fe5b906000526020600020906002020160010154029050806000808473ffffffffffffffffffffffffffffffffffffffff1673ffffffffffffffffffffffffffffffffffffffff168152602001908152602001600020600082825401925050819055508173ffffffffffffffffffffffffffffffffffffffff167ff9b6ec770c96c3a6f9225bf3a8463a8ad03e884448af07b4ecd4d19d628946ee8260405161032291906109a7565b60405180910390a250505050565b604080518082019091528281526020808201839052600180548082018083556000929092528351805192949360029092027fb10e2d527612073b26eecdfd717e6a320cf44b4afac2b0732d9fcbe2b7fa0cf6019261039192849201906105e3565b50602082015181600101555050507f0b0712ec456af93f6b0404b0e069493b19905c3124aa2ef31ccaa41199a75c1582826040516103d0929190610951565b60405180910390a15050565b60606001805480602002602001604051908101604052809291908181526020016000905b828210156104c65760008481526020908190206040805160028681029093018054600181161561010002600019011693909304601f8101859004909402810160609081018352918101848152909384928491908401828280156104a45780601f10610479576101008083540402835291602001916104a4565b820191906000526020600020905b81548152906001019060200180831161048757829003601f168201915b5050505050815260200160018201548152505081526020019060010190610400565b5050505090505b90565b33600090815260208190526040812054908111610519576040517f08c379a000000000000000000000000000000000000000000000000000000000815260040161026090610987565b3031811115610554576040517f08c379a000000000000000000000000000000000000000000000000000000000815260040161026090610971565b336000818152602081905260408082208290555183156108fc0291849190818181858888f1935050505015801561058f573d6000803e3d6000fd5b503373ffffffffffffffffffffffffffffffffffffffff167f106f923f993c2149d49b4255ff723acafa1f2d94393f561d3eda32ae348f7241826040516105d691906109a7565b60405180910390a250565b565b828054600181600116156101000203166002900490600052602060002090601f016020900481019282601f1061062457805160ff1916838001178555610651565b82800160010185558215610651579182015b82811115610651578251825591602001919060010190610636565b5061065d929150610661565b5090565b6104cd91905b8082111561065d5760008155600101610667565b60006106878235610a27565b9392505050565b6000601f8201831361069f57600080fd5b81356106b26106ad826109dc565b6109b5565b915080825260208301602083018583830111156106ce57600080fd5b6106d9838284610a32565b50505092915050565b600061068782356104cd565b60006020828403121561070057600080fd5b600061070c848461067b565b949350505050565b6000806040838503121561072757600080fd5b823567ffffffffffffffff81111561073e57600080fd5b61074a8582860161068e565b925050602061075b858286016106e2565b9150509250929050565b60006020828403121561077757600080fd5b600061070c84846106e2565b60008060006060848603121561079857600080fd5b60006107a486866106e2565b93505060206107b5868287016106e2565b92505060406107c68682870161067b565b9150509250925092565b60006107db82610a0a565b808452602084019350836020820285016107f485610a04565b60005b8481101561082b57838303885261080f8383516108fc565b925061081a82610a04565b6020989098019791506001016107f7565b50909695505050505050565b600061084282610a0a565b808452610856816020860160208601610a3e565b61085f81610a6e565b9093016020019392505050565b601c81527f4e6f7420656e6f7567682066756e647320696e20636f6e747261637400000000602082015260400190565b601381527f4e6f2072657761726420617661696c61626c6500000000000000000000000000602082015260400190565b601681527f496e76616c696420616374697669747920696e64657800000000000000000000602082015260400190565b80516040808452600091908401906109148282610837565b91505060208301516109296020860182610931565b509392505050565b61093a816104cd565b82525050565b6020808252810161068781846107d0565b604080825281016109628185610837565b90506106876020830184610931565b602080825281016109818161086c565b92915050565b602080825281016109818161089c565b60208082528101610981816108cc565b602081016109818284610931565b60405181810167ffffffffffffffff811182821017156109d457600080fd5b604052919050565b600067ffffffffffffffff8211156109f357600080fd5b506020601f91909101601f19160190565b60200190565b5190565b73ffffffffffffffffffffffffffffffffffffffff1690565b600061098182610a0e565b82818337506000910152565b60005b83811015610a59578181015183820152602001610a41565b83811115610a68576000848401525b50505050565b601f01601f19169056fea265627a7a72305820cafac32ff9bd869a68a025083dadad103bffa3569951009c0cda1e2ccc9f6e956c6578706572696d656e74616cf50037",
  "source": "pragma solidity >=0.4.22 <0.9.0;\npragma experimental ABIEncoderV2;\n\ncontract EcoReward {\n    mapping(address => uint) public rewards;\n\n    event RewardIssued(address indexed user, uint amount);\n    event RewardClaimed(address indexed user, uint amount);\n    event ActivityAdded(string activityName, uint rewardRate);\n\n    struct Activity {\n        string name;\n        uint rewardRate; // Rata de recompensă per unitate\n    }\n\n    Activity[] public activities; // Lista activităților disponibile\n\n    constructor() public payable {\n        // Inițializăm activități de bază\n        addActivity(\"Recycling\", 1);\n        addActivity(\"Planting Trees\", 2);\n        addActivity(\"Using Public Transport\", 3);\n    }\n\n    function addActivity(string memory activityName, uint rewardRate) public {\n        activities.push(Activity(activityName, rewardRate));\n        emit ActivityAdded(activityName, rewardRate);\n    }\n\n    function logEcoActivity(uint activityIndex, uint detail, address user) public {\n        require(activityIndex < activities.length, \"Invalid activity index\");\n        uint rewardAmount = activities[activityIndex].rewardRate * detail;\n        rewards[user] += rewardAmount;\n        emit RewardIssued(user, rewardAmount);\n    }\n\n\tfunction claimReward() public payable {\n\t\tuint rewardAmount = rewards[msg.sender];\n\n\t\trequire(rewardAmount > 0, \"No reward available\");\n\t\trequire(address(this).balance >= rewardAmount, \"Not enough funds in contract\");\n\n\t\trewards[msg.sender] = 0;\n\t\t\n        // Transferă folosind metoda `transfer`\n        msg.sender.transfer(rewardAmount);\n\n\t\temit RewardClaimed(msg.sender, rewardAmount);\n\t}\n\n\n    function getActivities() public view returns (Activity[] memory) {\n        return activities;\n    }\n\n    // Funcție pentru a permite alimentarea contractului\n    function depositFunds() public payable {}\n}\n",
  "sourcePath": "C:/Users/Iuliana P/blockchain-app/contracts/EcoReward.sol",
  "compiler": {
    "name": "solc",
    "version": "0.5.0+commit.1d4f565a.Emscripten.clang"
  },
  "schemaVersion": "3.0.1",
  "updatedAt": "2024-12-30T16:50:10.207Z",
  "devdoc": {
    "methods": {}
  },
  "userdoc": {
    "methods": {}
  }
}