{
  "contractName": "EcoReward",
  "abi": [
    {
      "constant": true,
      "inputs": [
        {
          "name": "",
          "type": "address"
        }
      ],
      "name": "rewards",
      "outputs": [
        {
          "name": "",
          "type": "uint256"
        }
      ],
      "payable": false,
      "stateMutability": "view",
      "type": "function",
      "signature": "0x0700037d"
    },
    {
      "constant": true,
      "inputs": [
        {
          "name": "",
          "type": "uint256"
        }
      ],
      "name": "activities",
      "outputs": [
        {
          "name": "name",
          "type": "string"
        },
        {
          "name": "rewardRate",
          "type": "uint256"
        }
      ],
      "payable": false,
      "stateMutability": "view",
      "type": "function",
      "signature": "0x0d1657e8"
    },
    {
      "inputs": [],
      "payable": true,
      "stateMutability": "payable",
      "type": "constructor",
      "signature": "constructor"
    },
    {
      "anonymous": false,
      "inputs": [
        {
          "indexed": true,
          "name": "user",
          "type": "address"
        },
        {
          "indexed": false,
          "name": "amount",
          "type": "uint256"
        }
      ],
      "name": "RewardIssued",
      "type": "event",
      "signature": "0xf9b6ec770c96c3a6f9225bf3a8463a8ad03e884448af07b4ecd4d19d628946ee"
    },
    {
      "anonymous": false,
      "inputs": [
        {
          "indexed": true,
          "name": "user",
          "type": "address"
        },
        {
          "indexed": false,
          "name": "amount",
          "type": "uint256"
        }
      ],
      "name": "RewardClaimed",
      "type": "event",
      "signature": "0x106f923f993c2149d49b4255ff723acafa1f2d94393f561d3eda32ae348f7241"
    },
    {
      "anonymous": false,
      "inputs": [
        {
          "indexed": false,
          "name": "activityName",
          "type": "string"
        },
        {
          "indexed": false,
          "name": "rewardRate",
          "type": "uint256"
        }
      ],
      "name": "ActivityAdded",
      "type": "event",
      "signature": "0x0b0712ec456af93f6b0404b0e069493b19905c3124aa2ef31ccaa41199a75c15"
    },
    {
      "anonymous": false,
      "inputs": [
        {
          "indexed": false,
          "name": "index",
          "type": "uint256"
        },
        {
          "indexed": false,
          "name": "rewardRate",
          "type": "uint256"
        }
      ],
      "name": "DebugActivity",
      "type": "event",
      "signature": "0x4ec8cce49c6dfe26da58637fabf6a5f1e0ccbc96ba2d0ac92a9c7e8ca40871cb"
    },
    {
      "constant": false,
      "inputs": [
        {
          "name": "activityName",
          "type": "string"
        },
        {
          "name": "rewardRate",
          "type": "uint256"
        },
        {
          "name": "user",
          "type": "address"
        }
      ],
      "name": "addAndLogActivity",
      "outputs": [],
      "payable": false,
      "stateMutability": "nonpayable",
      "type": "function",
      "signature": "0xaf800154"
    },
    {
      "constant": false,
      "inputs": [],
      "name": "claimReward",
      "outputs": [],
      "payable": true,
      "stateMutability": "payable",
      "type": "function",
      "signature": "0xb88a802f"
    },
    {
      "constant": true,
      "inputs": [],
      "name": "getActivities",
      "outputs": [
        {
          "components": [
            {
              "name": "name",
              "type": "string"
            },
            {
              "name": "rewardRate",
              "type": "uint256"
            }
          ],
          "name": "",
          "type": "tuple[]"
        }
      ],
      "payable": false,
      "stateMutability": "view",
      "type": "function",
      "signature": "0x71aa17c6"
    },
    {
      "constant": false,
      "inputs": [],
      "name": "depositFunds",
      "outputs": [],
      "payable": true,
      "stateMutability": "payable",
      "type": "function",
      "signature": "0xe2c41dbc"
    },
    {
      "constant": false,
      "inputs": [
        {
          "name": "activityIndexes",
          "type": "uint256[]"
        }
      ],
      "name": "claimSelectedRewards",
      "outputs": [],
      "payable": false,
      "stateMutability": "nonpayable",
      "type": "function",
      "signature": "0x2d2f9a60"
    }
  ],
  "bytecode": "0x6080604052610ce0806100136000396000f3fe6080604052600436106100825763ffffffff7c01000000000000000000000000000000000000000000000000000000006000350416630700037d81146100875780630d1657e8146100bd5780632d2f9a60146100eb57806371aa17c61461010d578063af8001541461012f578063b88a802f1461014f578063e2c41dbc14610157575b600080fd5b34801561009357600080fd5b506100a76100a2366004610865565b61015f565b6040516100b49190610b99565b60405180910390f35b3480156100c957600080fd5b506100dd6100d8366004610924565b610171565b6040516100b4929190610b23565b3480156100f757600080fd5b5061010b61010636600461088b565b610225565b005b34801561011957600080fd5b506101226103f3565b6040516100b49190610b12565b34801561013b57600080fd5b5061010b61014a3660046108c0565b6104e7565b61010b6105fb565b61010b6106de565b60006020819052908152604090205481565b600180548290811061017f57fe5b60009182526020918290206002918202018054604080516001831615610100026000190190921693909304601f8101859004850282018501909352828152909350918391908301828280156102155780601f106101ea57610100808354040283529160200191610215565b820191906000526020600020905b8154815290600101906020018083116101f857829003601f168201915b5050505050908060010154905082565b6000805b825181101561031d576000838281518110151561024257fe5b60209081029091010151600154909150811061027c5760405160e560020a62461bcd02815260040161027390610b89565b60405180910390fd5b600060018281548110151561028d57fe5b906000526020600020906002020190507f4ec8cce49c6dfe26da58637fabf6a5f1e0ccbc96ba2d0ac92a9c7e8ca40871cb8282600101546040516102d2929190610ba7565b60405180910390a160018101546000106103015760405160e560020a62461bcd02815260040161027390610b59565b6001908101805460009091559390930192919091019050610229565b50600081116103415760405160e560020a62461bcd02815260040161027390610b79565b30318111156103655760405160e560020a62461bcd02815260040161027390610b43565b336000818152602081905260408082208290555183156108fc0291849190818181858888f193505050501580156103a0573d6000803e3d6000fd5b503373ffffffffffffffffffffffffffffffffffffffff167f106f923f993c2149d49b4255ff723acafa1f2d94393f561d3eda32ae348f7241826040516103e79190610b99565b60405180910390a25050565b60606001805480602002602001604051908101604052809291908181526020016000905b828210156104dd5760008481526020908190206040805160028681029093018054600181161561010002600019011693909304601f8101859004909402810160609081018352918101848152909384928491908401828280156104bb5780601f10610490576101008083540402835291602001916104bb565b820191906000526020600020905b81548152906001019060200180831161049e57829003601f168201915b5050505050815260200160018201548152505081526020019060010190610417565b5050505090505b90565b604080518082019091528381526020808201849052600180548082018083556000929092528351805192949360029092027fb10e2d527612073b26eecdfd717e6a320cf44b4afac2b0732d9fcbe2b7fa0cf6019261054892849201906106e0565b50602082015181600101555050507f0b0712ec456af93f6b0404b0e069493b19905c3124aa2ef31ccaa41199a75c158383604051610587929190610b23565b60405180910390a173ffffffffffffffffffffffffffffffffffffffff811660008181526020819052604090819020805485019055518391907ff9b6ec770c96c3a6f9225bf3a8463a8ad03e884448af07b4ecd4d19d628946ee906105ed908490610b99565b60405180910390a250505050565b3360009081526020819052604081205490811161062d5760405160e560020a62461bcd02815260040161027390610b69565b30318111156106515760405160e560020a62461bcd02815260040161027390610b43565b336000818152602081905260408082208290555183156108fc0291849190818181858888f1935050505015801561068c573d6000803e3d6000fd5b503373ffffffffffffffffffffffffffffffffffffffff167f106f923f993c2149d49b4255ff723acafa1f2d94393f561d3eda32ae348f7241826040516106d39190610b99565b60405180910390a250565b565b828054600181600116156101000203166002900490600052602060002090601f016020900481019282601f1061072157805160ff191683800117855561074e565b8280016001018555821561074e579182015b8281111561074e578251825591602001919060010190610733565b5061075a92915061075e565b5090565b6104e491905b8082111561075a5760008155600101610764565b60006107848235610c55565b9392505050565b6000601f8201831361079c57600080fd5b81356107af6107aa82610be9565b610bc2565b915081818352602084019350602081019050838560208402820111156107d457600080fd5b60005b8381101561080057816107ea8882610859565b84525060209283019291909101906001016107d7565b5050505092915050565b6000601f8201831361081b57600080fd5b81356108296107aa82610c0a565b9150808252602083016020830185838301111561084557600080fd5b610850838284610c60565b50505092915050565b600061078482356104e4565b60006020828403121561087757600080fd5b60006108838484610778565b949350505050565b60006020828403121561089d57600080fd5b813567ffffffffffffffff8111156108b457600080fd5b6108838482850161078b565b6000806000606084860312156108d557600080fd5b833567ffffffffffffffff8111156108ec57600080fd5b6108f88682870161080a565b935050602061090986828701610859565b925050604061091a86828701610778565b9150509250925092565b60006020828403121561093657600080fd5b60006108838484610859565b600061094d82610c38565b8084526020840193508360208202850161096685610c32565b60005b8481101561099d578383038852610981838351610ace565b925061098c82610c32565b602098909801979150600101610969565b50909695505050505050565b60006109b482610c38565b8084526109c8816020860160208601610c6c565b6109d181610c9c565b9093016020019392505050565b601c81527f4e6f7420656e6f7567682066756e647320696e20636f6e747261637400000000602082015260400190565b601881527f416374697669747920616c726561647920636c61696d65640000000000000000602082015260400190565b601381527f4e6f2072657761726420617661696c61626c6500000000000000000000000000602082015260400190565b601981527f4e6f2076616c6964207265776172647320746f20636c61696d00000000000000602082015260400190565b601681527f496e76616c696420616374697669747920696e64657800000000000000000000602082015260400190565b8051604080845260009190840190610ae682826109a9565b9150506020830151610afb6020860182610b03565b509392505050565b610b0c816104e4565b82525050565b602080825281016107848184610942565b60408082528101610b3481856109a9565b90506107846020830184610b03565b60208082528101610b53816109de565b92915050565b60208082528101610b5381610a0e565b60208082528101610b5381610a3e565b60208082528101610b5381610a6e565b60208082528101610b5381610a9e565b60208101610b538284610b03565b60408101610bb58285610b03565b6107846020830184610b03565b60405181810167ffffffffffffffff81118282101715610be157600080fd5b604052919050565b600067ffffffffffffffff821115610c0057600080fd5b5060209081020190565b600067ffffffffffffffff821115610c2157600080fd5b506020601f91909101601f19160190565b60200190565b5190565b73ffffffffffffffffffffffffffffffffffffffff1690565b6000610b5382610c3c565b82818337506000910152565b60005b83811015610c87578181015183820152602001610c6f565b83811115610c96576000848401525b50505050565b601f01601f19169056fea265627a7a7230582057baa8737421e55f91e03791e2c72fdbd82715bc6336b93f6118823a27c89d9f6c6578706572696d656e74616cf50037",
  "source": "pragma solidity >=0.4.22 <0.9.0;\npragma experimental ABIEncoderV2;\n\ncontract EcoReward {\n    mapping(address => uint) public rewards;\n\n    event RewardIssued(address indexed user, uint amount);\n    event RewardClaimed(address indexed user, uint amount);\n    event ActivityAdded(string activityName, uint rewardRate);\n\tevent DebugActivity(uint index, uint rewardRate);\n\n    struct Activity {\n        string name;\n        uint rewardRate; // Rata de recompensă per unitate\n    }\n\n    Activity[] public activities; // Lista activităților disponibile\n\n    constructor() public payable {\n    }\n\n\tfunction addAndLogActivity(\n\t\t\tstring memory activityName,\n\t\t\tuint rewardRate,\n\t\t\taddress user\n\t\t) public {\n\t\t\t// Adauga o noua activitate\n\t\t\tactivities.push(Activity(activityName, rewardRate));\n\t\t\temit ActivityAdded(activityName, rewardRate);\n\n\t\t\t// Calculeaza recompensa si actualizeaza balanta utilizatorului\n\t\t\tuint rewardAmount = rewardRate;\n\t\t\trewards[user] += rewardAmount;\n\t\t\temit RewardIssued(user, rewardAmount);\n\t\t}\n\n\n\tfunction claimReward() public payable {\n\t\tuint rewardAmount = rewards[msg.sender];\n\n\t\trequire(rewardAmount > 0, \"No reward available\");\n\t\trequire(address(this).balance >= rewardAmount, \"Not enough funds in contract\");\n\n\t\trewards[msg.sender] = 0;\n\t\t\n        msg.sender.transfer(rewardAmount);\n\n\t\temit RewardClaimed(msg.sender, rewardAmount);\n\t}\n\n\n    function getActivities() public view returns (Activity[] memory) {\n        return activities;\n    }\n\n    // Functie pentru a permite alimentarea contractului\n    function depositFunds() public payable {}\n\n\tfunction claimSelectedRewards(uint[] memory activityIndexes) public {\n    uint totalReward = 0;\n\n    for (uint i = 0; i < activityIndexes.length; i++) {\n        uint index = activityIndexes[i];\n        require(index < activities.length, \"Invalid activity index\");\n\n        Activity storage activity = activities[index];\n        emit DebugActivity(index, activity.rewardRate); // Debugging event\n        require(activity.rewardRate > 0, \"Activity already claimed\");\n\n        totalReward += activity.rewardRate;\n        activity.rewardRate = 0;\n    }\n\n    require(totalReward > 0, \"No valid rewards to claim\");\n    require(address(this).balance >= totalReward, \"Not enough funds in contract\");\n\n\t// Transfer recompense utilizatorului\n    rewards[msg.sender] = 0;\n    msg.sender.transfer(totalReward); // Transfer fonduri\n    //rewards[msg.sender] += totalReward;\n    emit RewardClaimed(msg.sender, totalReward);\n}\n}\n",
  "sourcePath": "C:/Users/Iuliana P/blockchain-app/contracts/EcoReward.sol",
  "compiler": {
    "name": "solc",
    "version": "0.5.0+commit.1d4f565a.Emscripten.clang"
  },
  "schemaVersion": "3.0.1",
  "updatedAt": "2025-01-18T13:59:57.472Z",
  "devdoc": {
    "methods": {}
  },
  "userdoc": {
    "methods": {}
  }
}